:020000040800F2
:10000000B1AA010000000000000000000000000094
:1000100000000000000000000000000000000000E0
:1000200000000000000000000000000000000000D0
:1000300000000000000000000000000000000000C0
:1000400000000000000000000000000000000000B0
:1000500000000000000000000000000000000000A0
:100060000000000000000000000000000000000090
:100070000000000000000000000000000000000080
:100080000000000000000000000000000000000070
:100090000000000000000000000000000000000060
:1000A0000000000000000000000000000000000050
:1000B0000000000000000000000000000000000040
:1000C0000000000000000000000000000000000030
:1000D0000000000000000000000000000000000020
:1000E0000000000000000000000000000000000010
:1000F0000000000000000000000000000000000000
:1001000000000000000000000000000000000000EF
:1001100000000000000000000000000000000000DF
:1001200000000000000000000000000000000000CF
:1001300000000000000000000000000000000000BF
:1001400000000000000000000000000000000000AF
:100150000000000000000000000000007370043088
:10016000170500001305C5FF8545F605637BB5003F
:1001700089816378B500170500001305C5002E9529
:1001800002859302002073A0027D970200009382F3
:1001900062E773907230970200009382624A739014
:1001A000C27E73E0C07E970200009382A2417390EA
:1001B0005230970100189381E16A178100181301EA
:1001C00061E4172500001305658C970500189385D9
:1001D00065E317060018130666E963FAC500832273
:1001E000050023A0550011059105E3EAC5FE17059A
:1001F00000181305A5E79385018A6377B5002320CE
:1002000005001105E36DB5FE73F00232171500000D
:1002100013058558EF10A054EF10605B0145814530
:10022000C5226F10605401A073E00232828073F027
:0602300002328280000092
:100240000A50726F6772616D20686173206578690A
:10025000746564207769746820636F64653A000090
:10026000307800006E6D690A0000000074726170E1
:100270000A00000000000000000000000040AF4045
:10028000A209000026080000360900003E0900000F
:100290003609000056080000360900003E0900003B
:1002A0002608000026080000560800003E0900004D
:1002B00098090000980900009809000056080000FD
:1002C000960F00008C0E00008C0E00008A0E0000BD
:1002D000920E0000920E0000580E00008A0E0000E0
:1002E000920E0000580E0000920E00008A0E0000D0
:1002F000820F0000820F0000820F0000580E0000E5
:1003000000010202030303030404040404040404BC
:10031000050505050505050505050505050505058D
:10032000060606060606060606060606060606066D
:10033000060606060606060606060606060606065D
:10034000070707070707070707070707070707073D
:10035000070707070707070707070707070707072D
:10036000070707070707070707070707070707071D
:10037000070707070707070707070707070707070D
:1003800008080808080808080808080808080808ED
:1003900008080808080808080808080808080808DD
:1003A00008080808080808080808080808080808CD
:1003B00008080808080808080808080808080808BD
:1003C00008080808080808080808080808080808AD
:1003D000080808080808080808080808080808089D
:1003E000080808080808080808080808080808088D
:1003F000080808080808080808080808080808087D
:1004000041111305406006C622C4E526130560604D
:10041000CD2695460D46C145371501402D2637247A
:1004200001408D460D4613050480C145292E954592
:10043000371501406D2E130504808D454D2E130494
:1004400004808545371501404D261305800CD529BC
:10045000914537150140512E1305800CDD2185454E
:10046000228561261305800CE92989452285B52E50
:100470001305800CF9219545371501408D2E2285F5
:100480008D45B5261305800C6D2965BF7971B705BB
:10049000000822D47D462A84938505240A8506D641
:1004A000EF10C03979468A850945EF108044A2854E
:1004B00009455120B70500080546938505270945DC
:1004C000EF10204301A0411122C43744014026C24D
:1004D0009375F50FAA841305048006C613040480DF
:1004E0002D269D45228535266DDDB2402244268588
:1004F000924441018280011122CC26CA4AC84EC6CC
:1005000006CEB2842E843389C500A949631A24011A
:10051000F240624426854249D244B2490561828054
:10052000034504004D378347040063943701354584
:10053000593F0504E1BF79714ECEAE89B705000879
:1005400009469385052622D426D24AD052CC56CAD3
:1005500006D62A897144EF10C0393D4AA54AF154A4
:10056000B3178A00B3F73701B3D7870093F7F70FB4
:1005700063EAFA0293870703E207E18705469305DA
:10058000F1004A857114A307F100EF108036E319DA
:1005900094FCB250225492540259F249624AD24A0F
:1005A0004561828093877703C1BF0000000000008F
:1005B000000000000000000000000000000000003B
:1005C0005D7106C012C216C41AC61EC82ACA2ECC35
:1005D00032CE36D03AD23ED442D646D872DA76DC23
:1005E0007ADEFEC0F322103496C0F322003096C2A9
:1005F000F322407C96C4732520348A85E920864204
:1006000073901234964273900230A6427390427CEB
:1006100082401242A2423243C2435245E2457246F0
:1006200082561257A2573258C258525EE25E725F2B
:10063000864F616173002030000000005D7106C0CC
:1006400012C216C41AC61EC82ACA2ECC32CE36D042
:100650003AD23ED442D646D872DA76DC7ADEFEC092
:1006600073D0E87E7350F97E73D0B97EF390D07E5C
:1006700073700430B6427390427CA6427390123479
:1006800096427390223482401242A2423243C243C5
:100690005245E245724682561257A2573258C25806
:1006A000525EE25E725F864F616173002030B70573
:1006B00000084111154693854526054506C6EF10ED
:1006C00040230545E1334111856722C406C6FD1765
:1006D0002A846313F500E13FB705000815469385AA
:1006E000C5260545EF10E02022854D33411106C691
:1006F0001D2A1305700531283528B24041012DB659
:100700008280B70700D1D8438843CC43E39DE5FE00
:100710008280B70700D223800700A3850700120557
:10072000B71700D23E9563E3A700828023A007009D
:10073000C107D5BFF327503093F707FC93E7370085
:1007400073905730828093F7050193F8F50099C3B1
:10075000B3E8C8008147054EBD4E130F8002930FCA
:10076000800421433316FE00758E1DC213972700A7
:10077000832205003398EE001348F8FF33785800C1
:100780003397E800336707016399E50550C918C13D
:100790008507E39967FC054EBD4E130F8002930F4A
:1007A000800441433316FE00758E05C6139727005B
:1007B0000117832245003398EE001348F8FF337881
:1007C00058003397E80033670701639CE50150C97F
:1007D00058C18507E39867FC8280E39AF5FB10C94E
:1007E0007DB7E397F5FF10C9E5B70CC982804CC906
:1007F0008280B7170240135765003E971443854720
:10080000B397A700D58F1CC3828093F5F51F4CC109
:10081000828093D7650093F7F73F3E9508413355A3
:10082000B50005898280B71702409843B706FFE0FC
:10083000B1061367170098C3D843758FD8C3984380
:10084000B706F7FEFD16758F98C39843B706FCFFF1
:10085000FD16758F98C3D843B70601DFFD16758F57
:10086000D8C323A607029843B706F7EAFD16758F8B
:1008700098C33707FF0098C794434167D98E94C344
:100880009307F7FF3717024014431396E6006344BB
:100890000600FD17F5FBB717024098439316E700D3
:1008A00063C3060001A0D843B706C4DFFD16D8C352
:1008B000D843D8C3D84313670740D8C3D843758FEC
:1008C000D8C3D843B7062920558FD8C3D857BD768B
:1008D000758FD8D7D857C166938616F1558FD8D75C
:1008E0009843B7060004558F98C3B7170240984342
:1008F00093164700E3DD06FE9843B7060010558FB8
:1009000098C3B7170240984393162700E3DD06FE0D
:100910009843B7060001558F98C3B7170240984314
:1009200093166700E3DD06FED843719BD8C3D84316
:1009300013672700D8C3371702405C43A18BF5DF4C
:10094000828079714AD04ECE5AC806D622D426D299
:1009500052CC56CA5EC662C466C22A8B5D33AA896F
:100960002E894533AA842E846394A900E30BB9FE33
:10097000B707000803A9872783A9C727B70B00205B
:100980004933AA87058DB3B7A700818D9D8DEF00F0
:10099000303D2A8A03A50B06AE8AEF0010364A8640
:1009A000CE863D282A8C5A85AE8CEF0010352A86DB
:1009B000AE866285E685512D2A86AE865285D6851D
:1009C000D12BE34F05FAB250225492540259F24906
:1009D000624AD24A424BB24B224C924C45618280D1
:1009E000397193D7450122DC4AD856D22A8913940B
:1009F000C50006DE26DA4ED652D45AD05ECE13F5A6
:100A0000F77F318093DAF501630B05109307F07FD0
:100A1000630BF514135AD9010E0433648A00370AA4
:100A20008000336A4401131B3900930415C001444C
:100A3000814B13D846011399C6001378F87FB2880A
:100A40001359C90093D9F601630E08089307F07F84
:100A50006300F8041357D6010E0933692701130800
:100A600018C0B70780003367F90093183600B384C5
:100A700004418145BD4733C83A0163E4871A9707AB
:100A80000000938727800A043E9410403E96028619
:100A90003367C90093841480631207101364240021
:100AA00081488945C1BF1306F07F81470147B207DE
:100AB000F25062545206B1837E08D18FB3E707012A
:100AC000D2544259B259225A925A025BF24B3A8599
:100AD000BE852161828001481306F07FB7070800B8
:100AE0000147F1B73367C9004DC7630809304A852C
:100AF00032C4EF00703F2246130755FFF5479306B7
:100B000085FF998F3319D900B357F60033E72701D2
:100B1000B318D60026959304353F8145A1BF336AAB
:100B2000240163030A0636C632C46306042A2285FA
:100B3000EF00903B2246B246AA84130755FF754A40
:100B4000138B84FF330AEA4033146401335A49019A
:100B5000336A8A00331B69011305D0C0B304954082
:100B60000144814BF9B5336A240163180A0021441A
:100B7000014B9304F07F894B6DBD228A4A8B31442F
:100B80009304F07F8D4B75B51144014B8144854B27
:100B90004DB51364140081488545E9BD13643400E4
:100BA0004A878D45C1BD630A052E8547898F930607
:100BB000800363DDF632014681470147CDBDCE8615
:100BC0008947638DF53A8D47E387F5F08547368889
:100BD000E383F5FE1385F43FE357A0FC93F7780019
:100BE0006396072893D638009317770063D80700D9
:100BF000B70700FFFD177D8F138504409307E07F43
:100C0000E3C3A7EA1316D70193179700B18333679D
:100C1000D6001376F57F61BDD6865287DA88DE85E9
:100C200045B763614723630DEA20DA86FD145284D9
:100C3000014B9317870013D388013363F300935E4E
:100C40000301B357D403131F0301135F0F0193D59F
:100C50000601139E88003374D4033307FF02420455
:100C6000C18D63FBE5009A951386F7FF63EE652659
:100C700063FCE526F9179A95998D33D7D503C206FB
:100C8000C182B3F5D5033306EF02C205D58D63FBF0
:100C9000C5009A959306F7FF63E6652463F4C524BF
:100CA00079179A95C20741645D8F9307F4FF3375F6
:100CB000F70093580701935F0E01B377FE00B3026C
:100CC000F502B386C540B383F80293D5020133869B
:100CD000AF021E962E963385F80363737600229535
:100CE000C168FD1893550601337616014206B3F824
:100CF0001201AA95469663E6B6126382B6123306CF
:100D0000CB408D8E333BCB00338B66411385F43F54
:100D1000630C6317B358DB0393550601337BDB0386
:100D2000B3061F03420B33EB6501637BDB001A9BA9
:100D30009385F8FF636D6B20637BDB20F9181A9BAA
:100D4000330BDB40B356DB0342064182337BDB03CC
:100D5000330FDF02420B33666601637BE6011A96AE
:100D60009385F6FF6367661E6375E61FF9161A968C
:100D7000C208B3E8D8009395080193D20801C18155
:100D8000B38EF5023306E641B385BF0293D60E015A
:100D9000B387F202BE95AE96B38F5F0263F4F6009E
:100DA000C167BE9FC165FD1593D70601ED8EC206D2
:100DB000B3FEBE00BE9FF696637FF6091A96938730
:100DC000F8FF6369661A6368F619630FF61BBE883D
:100DD00093E8180011B54A85EF001011130755016B
:100DE000F145930405022246B246E3DAE5D4130442
:100DF00085FF331A8900014B85B3328532C4EF0079
:100E0000B00E13075501F146AA87224613050502C5
:100E1000E3D6E6CEE1173317F6008148E5B9E37073
:100E2000CBEE729B3335CB011A95AA961305F7FFCB
:100E30006378D30263E6B6106382D5102A87C1B502
:100E4000E3651BDF93551B009316FA0113541A0038
:100E5000CD8E7E0BF9BBE31DF6F7E38F06D6B9BF47
:100E6000E31ED3FCE378CBFD2A8751BD93F7F8004E
:100E70009146E389D7D693B7C8FF9386480093C7B6
:100E800017008D823E978DB381468547E34CA0FEC7
:100E9000FD58E31C05D0930410C085471385E44139
:100EA000B316A70033D6F8003395A800D18E33359A
:100EB000A000C98E13F676003357F70001CE93F7E2
:100EC000F60011466388C70093874600B3B6D70083
:100ED0003697BE869317870063D807040546814777
:100EE0000147F1B636877DBBB28779B3FD46E3D7BC
:100EF000F6FA0556098E930600023356C70063883A
:100F0000D7009387E443B317F700B3E8F800B3368C
:100F10001001D18E13F67600814701CE93F7F600CB
:100F200011460147E392C7FA931797001316D701AA
:100F3000B18313D73600518F014695BEE370CBF0D5
:100F4000729B3335CB011A957917AA964DBBAE88A3
:100F5000C5BBAE8631BD93171E0033BEC701729369
:100F60001A96F9183E8EE315F6E7E307DEC693E816
:100F700018009DB1BE88E30AF6FF99BD36881306B6
:100F8000F07F8147014725B6E367DEFCBE88E310AA
:100F9000DEFE99B113D74501B7071000FD1713D82E
:100FA00046011377F77F9308F07F33FEB700AA8ED0
:100FB000F58FFD81328F1378F87FFD82630E170362
:100FC000630D180129E3B368AE00631F08005D8E4E
:100FD00001EE0143638C080421A8B3E8C70009436C
:100FE000639608046DD305A0638408046385D50265
:100FF00005438DCD7D531DA8B368AE0009436397AB
:101000000802630AE802631408005D8E75D2E3915A
:10101000D5FEE34FE8FC63490701E3EBC7FD630F2F
:10102000FE0001436374FE00F1D505431A858280FA
:10103000EDFE7D53E5BF5D8E79DACDBFE36ADFFB60
:101040000143E3F5EEFFF5F175B739714AD813D9CD
:1010500045014ED652D456D29399C50006DE22DC05
:1010600026DA5AD05ECE1379F97F2A8A93D9C9003D
:1010700093DAF501630D090E9307F07F6304F91805
:101080001354D5018E09B36934013704800033E469
:10109000890093143500130919C08149814B13D776
:1010A0004601139AC6001377F77FB285135ACA0018
:1010B00013DBF601630A07109307F07F6303F7045D
:1010C0009357D6010E0A33EA4701130717C0B70733
:1010D0008000B367FA00931536003A99814833C708
:1010E0006A01BD463A851308190063E6361717F6FC
:1010F000FFFF1306261D8A09B29983A60900B2963E
:101100008286B367CA001309F97F6397071293E9D0
:10111000290081458948E1B701479307F07F3704EB
:10112000080081443204D20731807E075D8C598CDF
:10113000A285F250625426854259D254B259225A9D
:10114000925A025BF24B216182805A853E84AE84C2
:10115000C68B8947638BFB0E8D47E38FFBFA854770
:101160002A87639AFB3881470144814465BF33E491
:10117000A90055CC36C632C46389092A4E85AD23F1
:101180002246B246AA87130755FF7544938487FF0A
:10119000198CB399990033548A0033643401B31421
:1011A0009A0013D746011309D0C0139AC6001377CB
:1011B000F77F3309F9408149814BB285135ACA0040
:1011C00013DBF601E31A07EEB367CA00A9C7630E83
:1011D0000A22528532C4092B22462A87930655FFDC
:1011E000F547930587FF958F331ABA00B357F6007A
:1011F000B3E74701B315B6003309E9401309D9C075
:101200008148F1BD33E4A90001ECA14981441309EF
:10121000F07F894B69B593E9190081458548C1B5CF
:101220004E84AA84B1491309F07F8D4B8DBD91493D
:1012300081440149854BA5B593E93900D2878D4892
:1012400079BD89475685E399FBF02A879307F07F9C
:1012500001448144C1BDC16E1386FEFF93D60401D3
:1012600013DE0501F18CF18D338695023383B602CE
:101270009358060133059E021A95AA98B382C603B5
:1012800063F36800F692C16F1383FFFF33F56700C5
:1012900093D30701B3F76800C207337366003E9328
:1012A0003306950293D80801B387A602135F06019F
:1012B000B3849302BE94FA94B38E760263F3F4007F
:1012C000FE9E416A9307FAFF935F0401B376F40030
:1012D000B3F9F4007D8EC1803384D502C209338F07
:1012E000D401B299CE98B307DE02935E0401B385B0
:1012F000BF02AE97BE9E330EFE0363F3BE00529E46
:10130000C1679385F7FF33F6BE006D8C42062296C7
:1013100093DE0E01B305D502769E3385AF0213D45A
:101320000501B386D302AA96A296B38FF30363F3A3
:10133000A600BE9F41657D15B3F7A600C2076D8D5F
:10134000AA97B3855800B3B93501FA97B29533849B
:10135000370133B6C500B30EC4013385CE00333434
:101360003401B3B7E701C18F33BECE0113D40601F8
:101370003336C5003E943366CE0093949500329484
:101380007E94B3E46400260493567501B334900050
:10139000DD8193179500CD8C558CDD8C93177400EF
:1013A00063DB070093D7140085889316F401DD8C66
:1013B000D58C058042899307F93F6357F00893F66F
:1013C000740081CE93F6F40011466388C6009386BC
:1013D0004400B3B496002694B6849316740063D880
:1013E0000600B70700FFFD177D8C930709409306A1
:1013F000E07F63CDF60E93D634009314D401260417
:10140000D58C318093F7F77F31BB328532C4E92C1C
:1014100093065501F147130705022246E3D2D7DCB4
:101420006115B317A6008145C1BB7D2C130755017B
:10143000F145930705022246B246E3D8E5D461158B
:101440003314AA008144B1BB85469D8EB1E71309D0
:10145000E941B3972401B3D4D40033192401B3373D
:10146000F000B3649900DD8C93F77400B356D40098
:1014700081CF93F7F40011466388C7009387440037
:10148000B3B49700A696BE849397860063D80704EA
:1014900085470144814479B113068003E345D6CCE6
:1014A0007D46E356D6FA0556B307F640930500028B
:1014B0003356F4006387B6001309E943B3172401D8
:1014C000DD8CB3349000D18C93F67400014499CA3A
:1014D00093F7F40011468146E392C7FA13949600FD
:1014E0003180F6068D80D58C81472DB99307F07F2A
:1014F0000144814405B942897DBD15CD411122C405
:1015000006C62A84D5229306E041898EA94793F620
:10151000F67F63DCA7025515B317A400B207B183A9
:101520000147B2402244B207D206B183D58F3A8533
:10153000BE854101828081478146B207D206B183D0
:101540000147D58F3A85BE8582802D47098FB357D5
:10155000E400B207130755013317E400B183D1B794
:10156000B367B5009DCF411122C426C24AC006C64A
:10157000AA842E892E84A1C12E85BD229306E04324
:10158000898E9307304363C4D7069317C9002D464D
:10159000268793F6F67FB183635CA60C130655FF8E
:1015A0000DA881478146B207D206B1830147D58F86
:1015B0003A85BE8582800D2A2A869306E04313056C
:1015C0000502898E1307A00293F6F67F634CA70CE1
:1015D00055061307B002098FB317C90033D7E400CB
:1015E0005D8F9317C700B1833397C40051A0930751
:1015F000604363D9D70213078501930785036347C7
:10160000070C3396E40001472144098C518F93075E
:1016100004FE3337E00063CF0708B354F900814775
:10162000D98C3E84A14763C1A706370780FF7D1789
:1016300013F67400B377E40005C613F6F400914581
:101640006300B60213864400B3349600A6979395C0
:10165000870063D905089306F043F98F898EB28419
:101660001397D7018D80A607458FB18393F6F67F38
:10167000B2402244B207D206B183D58F92440249C8
:101680003A85BE854101828013078002130685FFDB
:10169000098F33D7E400B317C4003364F700B39461
:1016A000C40061B7930756FFB397F400B207B18344
:1016B00001477DBF7D4693171900018EB397C70080
:1016C000B3D48400DD8CB357890099BF7D461D8E4D
:1016D00013D714003357C7003316F900598E3397C8
:1016E000F4001DB7B284ADBFC167637EF5029307F6
:1016F000F00F1307000263ECA70097F7FFFF938733
:1017000067C0AA9703C507003305A74082802181DF
:1017100097F7FFFF938707BFAA9703C507006147A5
:101720003305A7408280B7070001636EF500618131
:1017300097F7FFFF938707BDAA9703C507002147C7
:101740003305A7408280418197F7FFFF938787BBCE
:10175000AA9703C5070041473305A7408280AA85A1
:10176000814601460145F1A2411122C406C69707F0
:1017700000009387C7242A8499C381453D2C97078D
:1017800000009387673088431C5591C38297228558
:10179000EFE0DFCF4111970700009387272F22C486
:1017A000170400001304842E1D8C26C206C609846B
:1017B000BE8419E42244B240924441016FE05FF4D8
:1017C0007D1493172400A6979C438297DDB741119F
:1017D000970700009387872B22C417040000130487
:1017E000E42A1D8C26C24AC006C6098481443E896B
:1017F00063988402EFE09FEF970700009387072923
:1018000017040000130484281D8C098481443E8938
:10181000639F8400B2402244924402494101828085
:1018200093972400CA979C4385048297D1B79397D6
:101830002400CA979C4385048297D9BFB3C7A500EB
:101840008D8B3307C50081E78D4763EEC700AA87FC
:101850006370E50A83C6050085078505A38FD7FE5B
:10186000E3EAE7FE828093763500AA8791CA83C6B1
:10187000050085078505A38FD7FE93F63700FDB7D2
:101880009376C7FF138606FE63F0C70683A30500A1
:1018900083A2450083AF850003AFC50083AE050179
:1018A00003AE450103A3850183A8C50193854502C5
:1018B00023A0770003A8C5FF23A2570023A4F701A4
:1018C00023A6E70123A8D70123AAC70123AC6700F9
:1018D00023AE17019387470223AE07FF75B79041E8
:1018E0009107910523AEC7FEE3EBD7FEE3E4E7F6ED
:1018F000828097E7FF1793872777B2862E86AA857F
:10190000884309A0411122C42A842E85B2853686D7
:1019100023AC018806C6EFE01FBEFD576317F50034
:10192000938781899C4391C31CC0B24022444101EA
:10193000828097E7FF17938767739C432A8E9DE306
:1019400017E7FF171307C77297E7FF1723A0E77280
:1019500017E5FFF71305056BBA8709C51C4123AAD4
:10196000F188BA87D8437D487D556347E804630E04
:101970000E0203A887086301080493182700C29881
:1019800023A0C8000323081005463316E60033637E
:10199000C3002320681023A0D80889466317DE00FF
:1019A00083264810558E2322C810930617000A0775
:1019B000D4C3BA978CC701458280797152CC56CA7C
:1019C0005AC85EC606D622D426D24AD04ECE62C4AB
:1019D0002A8B2E8A97EAFF17938A4A69854B03A4BC
:1019E0000A0011C84440832984081389F4FF8A043B
:1019F000A294635E0900B250225492540259F249F3
:101A0000624AD24A424BB24B224C45618280630EFD
:101A10000A00639509007D19F114E1BF93172900AD
:101A2000CE9783A70708E39847FF5840DC407D170F
:101A30006318270323222401F9DF032C4400638861
:101A4000090083A6091033972B01F98E89EE82973E
:101A5000584083A70A00E31487F9E30EF4FA41B76C
:101A600023A20400D1BF93162900CE968C4283A6F0
:101A70004910758F01E75A858297D9BF2E858297C5
:021A8000C1BFE4
:041A8400000000203E
:101A8800000000000000000000000000000000004E
:101A9800000000000000000000000000000000003E
:101AA800000000000000000000000000000000002E
:101AB800000000000000000000000000000000001E
:101AC800000000000000000000000000000000000E
:101AD80000000000000000000000000000000000FE
:081AE80000F36F06000000206E
:040000050800015C92
:00000001FF
